BL51 BANKED LINKER/LOCATER V6.22                                                        11/21/2015  19:35:27  PAGE 1


BL51 BANKED LINKER/LOCATER V6.22, INVOKED BY:
C:\KEIL FOR C51\C51\BIN\BL51.EXE STARTUP.obj, TLC5615 Sine Main.obj TO TLC5615 SINE WAVE  51 RAMSIZE (256)


MEMORY MODEL: SMALL


INPUT MODULES INCLUDED:
  STARTUP.obj (?C_STARTUP)
  TLC5615 Sine Main.obj (TLC5615_SINE_MAIN)


LINK MAP OF MODULE:  TLC5615 SINE WAVE  51 (?C_STARTUP)


            TYPE    BASE      LENGTH    RELOCATION   SEGMENT NAME
            -----------------------------------------------------

            * * * * * * *   D A T A   M E M O R Y   * * * * * * *
            REG     0000H     0008H     ABSOLUTE     "REG BANK 0"
            IDATA   0008H     0001H     UNIT         ?STACK

            * * * * * * *   C O D E   M E M O R Y   * * * * * * *
            CODE    0000H     0003H     ABSOLUTE     
            CODE    0003H     0200H     UNIT         ?CO?TLC5615_SINE_MAIN
            CODE    0203H     002BH     UNIT         ?PR?_OUTPUT?TLC5615_SINE_MAIN
            CODE    022EH     002AH     UNIT         ?PR?MAIN?TLC5615_SINE_MAIN
            CODE    0258H     000CH     UNIT         ?C_C51STARTUP
            CODE    0264H     000BH     UNIT         ?PR?_DELAY_US?TLC5615_SINE_MAIN



OVERLAY MAP OF MODULE:   TLC5615 SINE WAVE  51 (?C_STARTUP)


SEGMENT
  +--> CALLED SEGMENT
---------------------
?C_C51STARTUP
  +--> ?PR?MAIN?TLC5615_SINE_MAIN

?PR?MAIN?TLC5615_SINE_MAIN
  +--> ?CO?TLC5615_SINE_MAIN
  +--> ?PR?_OUTPUT?TLC5615_SINE_MAIN



SYMBOL TABLE OF MODULE:  TLC5615 SINE WAVE  51 (?C_STARTUP)

  VALUE           TYPE          NAME
  ----------------------------------

  -------         MODULE        ?C_STARTUP
  C:0258H         SEGMENT       ?C_C51STARTUP
  I:0008H         SEGMENT       ?STACK
  C:0000H         PUBLIC        ?C_STARTUP
  D:00E0H         SYMBOL        ACC
  D:00F0H         SYMBOL        B
BL51 BANKED LINKER/LOCATER V6.22                                                      11/21/2015  19:35:27  PAGE 2


  D:0083H         SYMBOL        DPH
  D:0082H         SYMBOL        DPL
  N:0000H         SYMBOL        IBPSTACK
  N:0100H         SYMBOL        IBPSTACKTOP
  N:0080H         SYMBOL        IDATALEN
  C:025BH         SYMBOL        IDATALOOP
  N:0000H         SYMBOL        PBPSTACK
  N:0100H         SYMBOL        PBPSTACKTOP
  N:0000H         SYMBOL        PDATALEN
  N:0000H         SYMBOL        PDATASTART
  N:0000H         SYMBOL        PPAGE
  N:0000H         SYMBOL        PPAGEENABLE
  D:00A0H         SYMBOL        PPAGE_SFR
  D:0081H         SYMBOL        SP
  C:0258H         SYMBOL        STARTUP1
  N:0000H         SYMBOL        XBPSTACK
  N:0000H         SYMBOL        XBPSTACKTOP
  N:0000H         SYMBOL        XDATALEN
  N:0000H         SYMBOL        XDATASTART
  C:0000H         LINE#         126
  C:0258H         LINE#         133
  C:025AH         LINE#         134
  C:025BH         LINE#         135
  C:025CH         LINE#         136
  C:025EH         LINE#         185
  C:0261H         LINE#         196
  -------         ENDMOD        ?C_STARTUP

  -------         MODULE        TLC5615_SINE_MAIN
  C:0000H         SYMBOL        _ICE_DUMMY_
  D:0090H         PUBLIC        P1
  D:00B0H         PUBLIC        P3
  D:00A8H         PUBLIC        IE
  B:0090H.2       PUBLIC        CS
  D:00B8H         PUBLIC        IP
  C:022EH         PUBLIC        main
  B:0090H.1       PUBLIC        SCLK
  D:0098H         PUBLIC        SCON
  C:0203H         PUBLIC        _output
  D:0088H         PUBLIC        TCON
  C:0264H         PUBLIC        _delay_us
  B:0090H.0       PUBLIC        DIN
  D:00C8H         PUBLIC        T2CON
  D:00D0H         PUBLIC        PSW
  C:0003H         PUBLIC        sin1
  -------         PROC          _DELAY_US
  D:0007H         SYMBOL        n
  -------         DO            
  D:0006H         SYMBOL        i
  -------         ENDDO         
  C:0264H         LINE#         71
  C:0264H         LINE#         72
  C:0264H         LINE#         74
  C:026EH         LINE#         75
  -------         ENDPROC       _DELAY_US
  -------         PROC          _OUTPUT
  D:0006H         SYMBOL        DA_Value
BL51 BANKED LINKER/LOCATER V6.22                                                      11/21/2015  19:35:27  PAGE 3


  -------         DO            
  D:0005H         SYMBOL        i
  -------         ENDDO         
  C:0203H         LINE#         82
  C:0203H         LINE#         83
  C:0203H         LINE#         85
  C:020EH         LINE#         86
  C:0210H         LINE#         87
  C:0212H         LINE#         88
  C:0214H         LINE#         89
  C:0214H         LINE#         90
  C:0218H         LINE#         91
  C:021CH         LINE#         93
  C:021EH         LINE#         94
  C:0220H         LINE#         95
  C:0222H         LINE#         96
  C:0229H         LINE#         97
  C:022BH         LINE#         98
  C:022DH         LINE#         99
  -------         ENDPROC       _OUTPUT
  -------         PROC          MAIN
  -------         DO            
  D:0002H         SYMBOL        i
  -------         ENDDO         
  C:022EH         LINE#         100
  C:022EH         LINE#         101
  C:022EH         LINE#         103
  C:022EH         LINE#         104
  C:022EH         LINE#         105
  C:0231H         LINE#         106
  C:0231H         LINE#         107
  -------         ENDPROC       MAIN
  -------         ENDMOD        TLC5615_SINE_MAIN

*** WARNING L16: UNCALLED SEGMENT, IGNORED FOR OVERLAY PROCESS
    SEGMENT: ?PR?_DELAY_US?TLC5615_SINE_MAIN

Program Size: data=9.0 xdata=0 code=623
LINK/LOCATE RUN COMPLETE.  1 WARNING(S),  0 ERROR(S)
